{
  "contractName": "Track",
  "abi": [
    {
      "inputs": [],
      "stateMutability": "nonpayable",
      "type": "constructor"
    },
    {
      "anonymous": false,
      "inputs": [
        {
          "indexed": true,
          "internalType": "string",
          "name": "foodId",
          "type": "string"
        },
        {
          "indexed": false,
          "internalType": "string",
          "name": "foodName",
          "type": "string"
        },
        {
          "indexed": false,
          "internalType": "string",
          "name": "cultivationDate",
          "type": "string"
        },
        {
          "indexed": false,
          "internalType": "string",
          "name": "location",
          "type": "string"
        },
        {
          "indexed": false,
          "internalType": "string",
          "name": "fertilizerType",
          "type": "string"
        }
      ],
      "name": "FarmerInfoAdded",
      "type": "event"
    },
    {
      "inputs": [
        {
          "internalType": "string",
          "name": "",
          "type": "string"
        }
      ],
      "name": "farmerInfo",
      "outputs": [
        {
          "internalType": "string",
          "name": "foodId",
          "type": "string"
        },
        {
          "internalType": "string",
          "name": "foodName",
          "type": "string"
        },
        {
          "internalType": "string",
          "name": "cultivationDate",
          "type": "string"
        },
        {
          "internalType": "string",
          "name": "location",
          "type": "string"
        },
        {
          "internalType": "string",
          "name": "fertilizerType",
          "type": "string"
        }
      ],
      "stateMutability": "view",
      "type": "function",
      "constant": true
    },
    {
      "inputs": [],
      "name": "owner",
      "outputs": [
        {
          "internalType": "address",
          "name": "",
          "type": "address"
        }
      ],
      "stateMutability": "view",
      "type": "function",
      "constant": true
    },
    {
      "inputs": [
        {
          "internalType": "string",
          "name": "_foodId",
          "type": "string"
        },
        {
          "internalType": "string",
          "name": "_foodName",
          "type": "string"
        },
        {
          "internalType": "string",
          "name": "_cultivationDate",
          "type": "string"
        },
        {
          "internalType": "string",
          "name": "_location",
          "type": "string"
        },
        {
          "internalType": "string",
          "name": "_fertilizerType",
          "type": "string"
        }
      ],
      "name": "addFarmerInfo",
      "outputs": [],
      "stateMutability": "nonpayable",
      "type": "function"
    },
    {
      "inputs": [
        {
          "internalType": "string",
          "name": "_foodId",
          "type": "string"
        }
      ],
      "name": "getFarmerInfo",
      "outputs": [
        {
          "internalType": "string",
          "name": "foodId",
          "type": "string"
        },
        {
          "internalType": "string",
          "name": "foodName",
          "type": "string"
        },
        {
          "internalType": "string",
          "name": "cultivationDate",
          "type": "string"
        },
        {
          "internalType": "string",
          "name": "location",
          "type": "string"
        },
        {
          "internalType": "string",
          "name": "fertilizerType",
          "type": "string"
        }
      ],
      "stateMutability": "view",
      "type": "function",
      "constant": true
    }
  ],
  "bytecode": "0x608060405234801561001057600080fd5b5033600160006101000a81548173ffffffffffffffffffffffffffffffffffffffff021916908373ffffffffffffffffffffffffffffffffffffffff160217905550611222806100616000396000f3fe608060405234801561001057600080fd5b506004361061004c5760003560e01c80630672300814610051578063820b29dc1461006d5780638da5cb5b146100a1578063aea82047146100bf575b600080fd5b61006b60048036038101906100669190610ab1565b6100f3565b005b61008760048036038101906100829190610bb8565b610302565b604051610098959493929190610c80565b60405180910390f35b6100a961063d565b6040516100b69190610d37565b60405180910390f35b6100d960048036038101906100d49190610bb8565b610663565b6040516100ea959493929190610c80565b60405180910390f35b600160009054906101000a900473ffffffffffffffffffffffffffffffffffffffff1673ffffffffffffffffffffffffffffffffffffffff163373ffffffffffffffffffffffffffffffffffffffff1614610183576040517f08c379a000000000000000000000000000000000000000000000000000000000815260040161017a90610dc4565b60405180910390fd5b600080866040516101949190610e20565b908152602001604051809103902060000180546101b090610e66565b9050146101f2576040517f08c379a00000000000000000000000000000000000000000000000000000000081526004016101e990610ee3565b60405180910390fd5b6040518060a00160405280868152602001858152602001848152602001838152602001828152506000866040516102299190610e20565b9081526020016040518091039020600082015181600001908161024c91906110b9565b50602082015181600101908161026291906110b9565b50604082015181600201908161027891906110b9565b50606082015181600301908161028e91906110b9565b5060808201518160040190816102a491906110b9565b50905050846040516102b69190610e20565b60405180910390207f14d8554043dbb742696cfb9ca755b4215d2b96be0f0a1f941d2b090d9cf180a8858585856040516102f3949392919061118b565b60405180910390a25050505050565b60608060608060606000808760405161031b9190610e20565b90815260200160405180910390206040518060a001604052908160008201805461034490610e66565b80601f016020809104026020016040519081016040528092919081815260200182805461037090610e66565b80156103bd5780601f10610392576101008083540402835291602001916103bd565b820191906000526020600020905b8154815290600101906020018083116103a057829003601f168201915b505050505081526020016001820180546103d690610e66565b80601f016020809104026020016040519081016040528092919081815260200182805461040290610e66565b801561044f5780601f106104245761010080835404028352916020019161044f565b820191906000526020600020905b81548152906001019060200180831161043257829003601f168201915b5050505050815260200160028201805461046890610e66565b80601f016020809104026020016040519081016040528092919081815260200182805461049490610e66565b80156104e15780601f106104b6576101008083540402835291602001916104e1565b820191906000526020600020905b8154815290600101906020018083116104c457829003601f168201915b505050505081526020016003820180546104fa90610e66565b80601f016020809104026020016040519081016040528092919081815260200182805461052690610e66565b80156105735780601f1061054857610100808354040283529160200191610573565b820191906000526020600020905b81548152906001019060200180831161055657829003601f168201915b5050505050815260200160048201805461058c90610e66565b80601f01602080910402602001604051908101604052809291908181526020018280546105b890610e66565b80156106055780601f106105da57610100808354040283529160200191610605565b820191906000526020600020905b8154815290600101906020018083116105e857829003601f168201915b505050505081525050905080600001518160200151826040015183606001518460800151955095509550955095505091939590929450565b600160009054906101000a900473ffffffffffffffffffffffffffffffffffffffff1681565b60008180516020810182018051848252602083016020850120818352809550505050505060009150905080600001805461069c90610e66565b80601f01602080910402602001604051908101604052809291908181526020018280546106c890610e66565b80156107155780601f106106ea57610100808354040283529160200191610715565b820191906000526020600020905b8154815290600101906020018083116106f857829003601f168201915b50505050509080600101805461072a90610e66565b80601f016020809104026020016040519081016040528092919081815260200182805461075690610e66565b80156107a35780601f10610778576101008083540402835291602001916107a3565b820191906000526020600020905b81548152906001019060200180831161078657829003601f168201915b5050505050908060020180546107b890610e66565b80601f01602080910402602001604051908101604052809291908181526020018280546107e490610e66565b80156108315780601f1061080657610100808354040283529160200191610831565b820191906000526020600020905b81548152906001019060200180831161081457829003601f168201915b50505050509080600301805461084690610e66565b80601f016020809104026020016040519081016040528092919081815260200182805461087290610e66565b80156108bf5780601f10610894576101008083540402835291602001916108bf565b820191906000526020600020905b8154815290600101906020018083116108a257829003601f168201915b5050505050908060040180546108d490610e66565b80601f016020809104026020016040519081016040528092919081815260200182805461090090610e66565b801561094d5780601f106109225761010080835404028352916020019161094d565b820191906000526020600020905b81548152906001019060200180831161093057829003601f168201915b5050505050905085565b6000604051905090565b600080fd5b600080fd5b600080fd5b600080fd5b6000601f19601f8301169050919050565b7f4e487b7100000000000000000000000000000000000000000000000000000000600052604160045260246000fd5b6109be82610975565b810181811067ffffffffffffffff821117156109dd576109dc610986565b5b80604052505050565b60006109f0610957565b90506109fc82826109b5565b919050565b600067ffffffffffffffff821115610a1c57610a1b610986565b5b610a2582610975565b9050602081019050919050565b82818337600083830152505050565b6000610a54610a4f84610a01565b6109e6565b905082815260208101848484011115610a7057610a6f610970565b5b610a7b848285610a32565b509392505050565b600082601f830112610a9857610a9761096b565b5b8135610aa8848260208601610a41565b91505092915050565b600080600080600060a08688031215610acd57610acc610961565b5b600086013567ffffffffffffffff811115610aeb57610aea610966565b5b610af788828901610a83565b955050602086013567ffffffffffffffff811115610b1857610b17610966565b5b610b2488828901610a83565b945050604086013567ffffffffffffffff811115610b4557610b44610966565b5b610b5188828901610a83565b935050606086013567ffffffffffffffff811115610b7257610b71610966565b5b610b7e88828901610a83565b925050608086013567ffffffffffffffff811115610b9f57610b9e610966565b5b610bab88828901610a83565b9150509295509295909350565b600060208284031215610bce57610bcd610961565b5b600082013567ffffffffffffffff811115610bec57610beb610966565b5b610bf884828501610a83565b91505092915050565b600081519050919050565b600082825260208201905092915050565b60005b83811015610c3b578082015181840152602081019050610c20565b60008484015250505050565b6000610c5282610c01565b610c5c8185610c0c565b9350610c6c818560208601610c1d565b610c7581610975565b840191505092915050565b600060a0820190508181036000830152610c9a8188610c47565b90508181036020830152610cae8187610c47565b90508181036040830152610cc28186610c47565b90508181036060830152610cd68185610c47565b90508181036080830152610cea8184610c47565b90509695505050505050565b600073ffffffffffffffffffffffffffffffffffffffff82169050919050565b6000610d2182610cf6565b9050919050565b610d3181610d16565b82525050565b6000602082019050610d4c6000830184610d28565b92915050565b7f4f6e6c79206f776e65722063616e20706572666f726d2074686973206163746960008201527f6f6e000000000000000000000000000000000000000000000000000000000000602082015250565b6000610dae602283610c0c565b9150610db982610d52565b604082019050919050565b60006020820190508181036000830152610ddd81610da1565b9050919050565b600081905092915050565b6000610dfa82610c01565b610e048185610de4565b9350610e14818560208601610c1d565b80840191505092915050565b6000610e2c8284610def565b915081905092915050565b7f4e487b7100000000000000000000000000000000000000000000000000000000600052602260045260246000fd5b60006002820490506001821680610e7e57607f821691505b602082108103610e9157610e90610e37565b5b50919050565b7f466f6f6420494420616c72656164792065786973747300000000000000000000600082015250565b6000610ecd601683610c0c565b9150610ed882610e97565b602082019050919050565b60006020820190508181036000830152610efc81610ec0565b9050919050565b60008190508160005260206000209050919050565b60006020601f8301049050919050565b600082821b905092915050565b600060088302610f657fffffffffffffffffffffffffffffffffffffffffffffffffffffffffffffffff82610f28565b610f6f8683610f28565b95508019841693508086168417925050509392505050565b6000819050919050565b6000819050919050565b6000610fb6610fb1610fac84610f87565b610f91565b610f87565b9050919050565b6000819050919050565b610fd083610f9b565b610fe4610fdc82610fbd565b848454610f35565b825550505050565b600090565b610ff9610fec565b611004818484610fc7565b505050565b5b818110156110285761101d600082610ff1565b60018101905061100a565b5050565b601f82111561106d5761103e81610f03565b61104784610f18565b81016020851015611056578190505b61106a61106285610f18565b830182611009565b50505b505050565b600082821c905092915050565b600061109060001984600802611072565b1980831691505092915050565b60006110a9838361107f565b9150826002028217905092915050565b6110c282610c01565b67ffffffffffffffff8111156110db576110da610986565b5b6110e58254610e66565b6110f082828561102c565b600060209050601f8311600181146111235760008415611111578287015190505b61111b858261109d565b865550611183565b601f19841661113186610f03565b60005b8281101561115957848901518255600182019150602085019450602081019050611134565b868310156111765784890151611172601f89168261107f565b8355505b6001600288020188555050505b505050505050565b600060808201905081810360008301526111a58187610c47565b905081810360208301526111b98186610c47565b905081810360408301526111cd8185610c47565b905081810360608301526111e18184610c47565b90509594505050505056fea26469706673582212201aef1033dd7fa07392c6242ac499ec3bcf7085c267e78ea41e5c7d3cfaaadbe764736f6c63430008120033",
  "immutableReferences": {},
  "source": "// SPDX-License-Identifier: MIT\r\npragma solidity >=0.4.22 <0.9.0;\r\n\r\ncontract Track {\r\n    struct FarmerInfo {\r\n        string foodId;\r\n        string foodName;\r\n        string cultivationDate;\r\n        string location;\r\n        string fertilizerType;\r\n    }\r\n\r\n    mapping(string => FarmerInfo) public farmerInfo;\r\n\r\n    event FarmerInfoAdded(\r\n        string indexed foodId,\r\n        string foodName,\r\n        string cultivationDate,\r\n        string location,\r\n        string fertilizerType\r\n    );\r\n\r\n    address public owner;\r\n\r\n    modifier onlyOwner() {\r\n        require(msg.sender == owner, \"Only owner can perform this action\");\r\n        _;\r\n    }\r\n\r\n    constructor() {\r\n        owner = msg.sender;\r\n    }\r\n\r\n    function addFarmerInfo(\r\n        string memory _foodId,\r\n        string memory _foodName,\r\n        string memory _cultivationDate,\r\n        string memory _location,\r\n        string memory _fertilizerType\r\n    ) public onlyOwner {\r\n        // Check if the foodId already exists\r\n        require(bytes(farmerInfo[_foodId].foodId).length == 0, \"Food ID already exists\");\r\n\r\n        farmerInfo[_foodId] = FarmerInfo(\r\n            _foodId,\r\n            _foodName,\r\n            _cultivationDate,\r\n            _location,\r\n            _fertilizerType\r\n        );\r\n\r\n        emit FarmerInfoAdded(\r\n            _foodId,\r\n            _foodName,\r\n            _cultivationDate,\r\n            _location,\r\n            _fertilizerType\r\n        );\r\n    }\r\n\r\n    function getFarmerInfo(string memory _foodId)\r\n    public\r\n    view\r\n    returns (\r\n        string memory foodId,\r\n        string memory foodName,\r\n        string memory cultivationDate,\r\n        string memory location,\r\n        string memory fertilizerType\r\n    )\r\n    {\r\n        FarmerInfo memory info = farmerInfo[_foodId];\r\n        return (\r\n        info.foodId,\r\n        info.foodName,\r\n        info.cultivationDate,\r\n        info.location,\r\n        info.fertilizerType\r\n        );\r\n    }\r\n}",
  "sourcePath": "D:\\block chain\\project CSE499\\cse499_project\\contracts\\Track.sol",
  "compiler": {
    "name": "solc",
    "version": "0.8.18+commit.87f61d96.Emscripten.clang"
  },
  "schemaVersion": "3.4.15",
  "updatedAt": "2023-09-25T15:32:30.313Z",
  "networkType": "ethereum",
  "devdoc": {
    "kind": "dev",
    "methods": {},
    "version": 1
  },
  "userdoc": {
    "kind": "user",
    "methods": {},
    "version": 1
  }
}